{"abi":[{"type":"constructor","inputs":[{"name":"_heNGN","type":"address","internalType":"address"},{"name":"_oracle","type":"address","internalType":"address"}],"stateMutability":"nonpayable"},{"type":"function","name":"COLLATERAL_RATIO","inputs":[],"outputs":[{"name":"","type":"uint256","internalType":"uint256"}],"stateMutability":"view"},{"type":"function","name":"INTEREST_RATE","inputs":[],"outputs":[{"name":"","type":"uint256","internalType":"uint256"}],"stateMutability":"view"},{"type":"function","name":"LIQUIDATION_BONUS","inputs":[],"outputs":[{"name":"","type":"uint256","internalType":"uint256"}],"stateMutability":"view"},{"type":"function","name":"LIQUIDATION_THRESHOLD","inputs":[],"outputs":[{"name":"","type":"uint256","internalType":"uint256"}],"stateMutability":"view"},{"type":"function","name":"ORIGINATION_FEE","inputs":[],"outputs":[{"name":"","type":"uint256","internalType":"uint256"}],"stateMutability":"view"},{"type":"function","name":"SECONDS_PER_YEAR","inputs":[],"outputs":[{"name":"","type":"uint256","internalType":"uint256"}],"stateMutability":"view"},{"type":"function","name":"addSupportedToken","inputs":[{"name":"token","type":"address","internalType":"address"}],"outputs":[],"stateMutability":"nonpayable"},{"type":"function","name":"borrow","inputs":[{"name":"amount","type":"uint256","internalType":"uint256"}],"outputs":[],"stateMutability":"nonpayable"},{"type":"function","name":"depositCollateral","inputs":[{"name":"token","type":"address","internalType":"address"},{"name":"amount","type":"uint256","internalType":"uint256"},{"name":"propertyId","type":"string","internalType":"string"},{"name":"propertyValue","type":"uint256","internalType":"uint256"}],"outputs":[],"stateMutability":"nonpayable"},{"type":"function","name":"getHealthFactor","inputs":[{"name":"user","type":"address","internalType":"address"}],"outputs":[{"name":"","type":"uint256","internalType":"uint256"}],"stateMutability":"view"},{"type":"function","name":"getLoanDetails","inputs":[{"name":"user","type":"address","internalType":"address"}],"outputs":[{"name":"collateralAmount","type":"uint256","internalType":"uint256"},{"name":"collateralToken","type":"address","internalType":"address"},{"name":"borrowedAmount","type":"uint256","internalType":"uint256"},{"name":"totalDebt","type":"uint256","internalType":"uint256"},{"name":"healthFactor","type":"uint256","internalType":"uint256"},{"name":"maxBorrow","type":"uint256","internalType":"uint256"}],"stateMutability":"view"},{"type":"function","name":"getMaxBorrow","inputs":[{"name":"user","type":"address","internalType":"address"}],"outputs":[{"name":"","type":"uint256","internalType":"uint256"}],"stateMutability":"view"},{"type":"function","name":"heNGN","inputs":[],"outputs":[{"name":"","type":"address","internalType":"contract IERC20"}],"stateMutability":"view"},{"type":"function","name":"isLiquidatable","inputs":[{"name":"user","type":"address","internalType":"address"}],"outputs":[{"name":"","type":"bool","internalType":"bool"}],"stateMutability":"view"},{"type":"function","name":"liquidate","inputs":[{"name":"borrower","type":"address","internalType":"address"}],"outputs":[],"stateMutability":"nonpayable"},{"type":"function","name":"loans","inputs":[{"name":"","type":"address","internalType":"address"}],"outputs":[{"name":"collateralAmount","type":"uint256","internalType":"uint256"},{"name":"collateralToken","type":"address","internalType":"address"},{"name":"borrowedAmount","type":"uint256","internalType":"uint256"},{"name":"timestamp","type":"uint256","internalType":"uint256"},{"name":"accruedInterest","type":"uint256","internalType":"uint256"},{"name":"lastInterestUpdate","type":"uint256","internalType":"uint256"},{"name":"propertyId","type":"string","internalType":"string"},{"name":"propertyValue","type":"uint256","internalType":"uint256"}],"stateMutability":"view"},{"type":"function","name":"oracle","inputs":[],"outputs":[{"name":"","type":"address","internalType":"contract IPriceOracle"}],"stateMutability":"view"},{"type":"function","name":"owner","inputs":[],"outputs":[{"name":"","type":"address","internalType":"address"}],"stateMutability":"view"},{"type":"function","name":"removeSupportedToken","inputs":[{"name":"token","type":"address","internalType":"address"}],"outputs":[],"stateMutability":"nonpayable"},{"type":"function","name":"renounceOwnership","inputs":[],"outputs":[],"stateMutability":"nonpayable"},{"type":"function","name":"repay","inputs":[{"name":"amount","type":"uint256","internalType":"uint256"}],"outputs":[],"stateMutability":"nonpayable"},{"type":"function","name":"supportedTokens","inputs":[{"name":"","type":"address","internalType":"address"}],"outputs":[{"name":"","type":"bool","internalType":"bool"}],"stateMutability":"view"},{"type":"function","name":"transferOwnership","inputs":[{"name":"newOwner","type":"address","internalType":"address"}],"outputs":[],"stateMutability":"nonpayable"},{"type":"function","name":"updateOracle","inputs":[{"name":"newOracle","type":"address","internalType":"address"}],"outputs":[],"stateMutability":"nonpayable"},{"type":"function","name":"withdrawCollateral","inputs":[{"name":"amount","type":"uint256","internalType":"uint256"}],"outputs":[],"stateMutability":"nonpayable"},{"type":"function","name":"withdrawFees","inputs":[],"outputs":[],"stateMutability":"nonpayable"},{"type":"event","name":"Borrowed","inputs":[{"name":"user","type":"address","indexed":true,"internalType":"address"},{"name":"amount","type":"uint256","indexed":false,"internalType":"uint256"},{"name":"fee","type":"uint256","indexed":false,"internalType":"uint256"}],"anonymous":false},{"type":"event","name":"CollateralDeposited","inputs":[{"name":"user","type":"address","indexed":true,"internalType":"address"},{"name":"token","type":"address","indexed":true,"internalType":"address"},{"name":"amount","type":"uint256","indexed":false,"internalType":"uint256"},{"name":"propertyId","type":"string","indexed":false,"internalType":"string"}],"anonymous":false},{"type":"event","name":"CollateralWithdrawn","inputs":[{"name":"user","type":"address","indexed":true,"internalType":"address"},{"name":"amount","type":"uint256","indexed":false,"internalType":"uint256"}],"anonymous":false},{"type":"event","name":"Liquidated","inputs":[{"name":"borrower","type":"address","indexed":true,"internalType":"address"},{"name":"debtCovered","type":"uint256","indexed":false,"internalType":"uint256"},{"name":"collateralSeized","type":"uint256","indexed":false,"internalType":"uint256"},{"name":"propertyId","type":"string","indexed":false,"internalType":"string"}],"anonymous":false},{"type":"event","name":"OwnershipTransferred","inputs":[{"name":"previousOwner","type":"address","indexed":true,"internalType":"address"},{"name":"newOwner","type":"address","indexed":true,"internalType":"address"}],"anonymous":false},{"type":"event","name":"Repaid","inputs":[{"name":"user","type":"address","indexed":true,"internalType":"address"},{"name":"principal","type":"uint256","indexed":false,"internalType":"uint256"},{"name":"interest","type":"uint256","indexed":false,"internalType":"uint256"}],"anonymous":false},{"type":"event","name":"TokenSupported","inputs":[{"name":"token","type":"address","indexed":true,"internalType":"address"}],"anonymous":false},{"type":"error","name":"DifferentCollateral","inputs":[{"name":"token","type":"address","internalType":"address"}]},{"type":"error","name":"InsufficientCollateral","inputs":[{"name":"requested","type":"uint256","internalType":"uint256"},{"name":"maxBorrow","type":"uint256","internalType":"uint256"}]},{"type":"error","name":"InsufficientCollateralToWithdraw","inputs":[{"name":"available","type":"uint256","internalType":"uint256"},{"name":"requested","type":"uint256","internalType":"uint256"}]},{"type":"error","name":"InvalidAmount","inputs":[{"name":"amount","type":"uint256","internalType":"uint256"}]},{"type":"error","name":"InvalidHeNGNAddress","inputs":[]},{"type":"error","name":"InvalidOracleAddress","inputs":[]},{"type":"error","name":"InvalidTokenAddress","inputs":[]},{"type":"error","name":"LendingPool__TransferFailed","inputs":[{"name":"token","type":"address","internalType":"address"},{"name":"from","type":"address","internalType":"address"},{"name":"to","type":"address","internalType":"address"},{"name":"amount","type":"uint256","internalType":"uint256"}]},{"type":"error","name":"NoActiveLoan","inputs":[{"name":"user","type":"address","internalType":"address"}]},{"type":"error","name":"NoCollateral","inputs":[{"name":"user","type":"address","internalType":"address"}]},{"type":"error","name":"OwnableInvalidOwner","inputs":[{"name":"owner","type":"address","internalType":"address"}]},{"type":"error","name":"OwnableUnauthorizedAccount","inputs":[{"name":"account","type":"address","internalType":"address"}]},{"type":"error","name":"PositionHealthy","inputs":[]},{"type":"error","name":"ReentrancyGuardReentrantCall","inputs":[]},{"type":"error","name":"SelfLiquidationNotAllowed","inputs":[]},{"type":"error","name":"TokenAlreadySupported","inputs":[]},{"type":"error","name":"TokenNotSupported","inputs":[{"name":"token","type":"address","internalType":"address"}]},{"type":"error","name":"TransferFailed","inputs":[]},{"type":"error","name":"Undercollateralized","inputs":[{"name":"newHealthFactor","type":"uint256","internalType":"uint256"},{"name":"requiredRatio","type":"uint256","internalType":"uint256"}]}],"bytecode":{"object":"0x608060405234801561000f575f5ffd5b506040516135bf3803806135bf83398181016040528101906100319190610329565b335f73ffffffffffffffffffffffffffffffffffffffff168173ffffffffffffffffffffffffffffffffffffffff16036100a2575f6040517f1e4fbdf70000000000000000000000000000000000000000000000000000000081526004016100999190610376565b60405180910390fd5b6100b18161020a60201b60201c565b50600180819055505f73ffffffffffffffffffffffffffffffffffffffff168273ffffffffffffffffffffffffffffffffffffffff160361011e576040517fd5275f3d00000000000000000000000000000000000000000000000000000000815260040160405180910390fd5b5f73ffffffffffffffffffffffffffffffffffffffff168173ffffffffffffffffffffffffffffffffffffffff1603610183576040517f5521068100000000000000000000000000000000000000000000000000000000815260040160405180910390fd5b8160025f6101000a81548173ffffffffffffffffffffffffffffffffffffffff021916908373ffffffffffffffffffffffffffffffffffffffff1602179055508060035f6101000a81548173ffffffffffffffffffffffffffffffffffffffff021916908373ffffffffffffffffffffffffffffffffffffffff160217905550505061038f565b5f5f5f9054906101000a900473ffffffffffffffffffffffffffffffffffffffff169050815f5f6101000a81548173ffffffffffffffffffffffffffffffffffffffff021916908373ffffffffffffffffffffffffffffffffffffffff1602179055508173ffffffffffffffffffffffffffffffffffffffff168173ffffffffffffffffffffffffffffffffffffffff167f8be0079c531659141344cd1fd0a4f28419497f9722a3daafe3b4186f6b6457e060405160405180910390a35050565b5f5ffd5b5f73ffffffffffffffffffffffffffffffffffffffff82169050919050565b5f6102f8826102cf565b9050919050565b610308816102ee565b8114610312575f5ffd5b50565b5f81519050610323816102ff565b92915050565b5f5f6040838503121561033f5761033e6102cb565b5b5f61034c85828601610315565b925050602061035d85828601610315565b9150509250929050565b610370816102ee565b82525050565b5f6020820190506103895f830184610367565b92915050565b6132238061039c5f395ff3fe608060405234801561000f575f5ffd5b506004361061018c575f3560e01c8063715018a6116100dc578063c5ebeaec11610095578063e8a7da8e1161006f578063e8a7da8e14610429578063f2fde38b1461045e578063fd1c317a1461047a578063fe6bcd7c146104aa5761018c565b8063c5ebeaec146103d1578063d9e69a05146103ed578063e6a69ab81461040b5761018c565b8063715018a61461031a57806373b4086b14610324578063763191901461035b5780637dc0d1d0146103775780638da5cb5b1461039557806390a8ae9b146103b35761018c565b80633aa3fe79116101495780635b72a33a116101235780635b72a33a146102945780636112fe2e146102b257806368c4ac26146102ce5780636d69fcaf146102fe5761018c565b80633aa3fe7914610250578063401258701461026e578063476343ee1461028a5761018c565b8063042e02cf146101905780631cb44dfc146101c057806326c98b38146101dc5780632f865568146101fa5780633574d4c414610216578063371fd8e614610234575b5f5ffd5b6101aa60048036038101906101a591906126fd565b6104da565b6040516101b79190612742565b60405180910390f35b6101da60048036038101906101d591906126fd565b610524565b005b6101e46105d4565b6040516101f191906127b6565b60405180910390f35b610214600480360381019061020f91906126fd565b6105f9565b005b61021e610b3b565b60405161022b91906127e7565b60405180910390f35b61024e6004803603810190610249919061282a565b610b40565b005b610258610de9565b60405161026591906127e7565b60405180910390f35b61028860048036038101906102839190612991565b610dee565b005b6102926111bb565b005b61029c611379565b6040516102a991906127e7565b60405180910390f35b6102cc60048036038101906102c7919061282a565b61137e565b005b6102e860048036038101906102e391906126fd565b61165b565b6040516102f59190612742565b60405180910390f35b610318600480360381019061031391906126fd565b611678565b005b610322611801565b005b61033e600480360381019061033991906126fd565b611814565b604051610352989796959493929190612a80565b60405180910390f35b610375600480360381019061037091906126fd565b6118fd565b005b61037f61195c565b60405161038c9190612b23565b60405180910390f35b61039d611981565b6040516103aa9190612b3c565b60405180910390f35b6103bb6119a8565b6040516103c891906127e7565b60405180910390f35b6103eb60048036038101906103e6919061282a565b6119ad565b005b6103f5611c53565b60405161040291906127e7565b60405180910390f35b610413611c58565b60405161042091906127e7565b60405180910390f35b610443600480360381019061043e91906126fd565b611c60565b60405161045596959493929190612b55565b60405180910390f35b610478600480360381019061047391906126fd565b611e7f565b005b610494600480360381019061048f91906126fd565b611f03565b6040516104a191906127e7565b60405180910390f35b6104c460048036038101906104bf91906126fd565b612167565b6040516104d191906127e7565b60405180910390f35b5f5f6104e583612167565b90507fffffffffffffffffffffffffffffffffffffffffffffffffffffffffffffffff8103610517575f91505061051f565b607881109150505b919050565b61052c6123c3565b5f73ffffffffffffffffffffffffffffffffffffffff168173ffffffffffffffffffffffffffffffffffffffff1603610591576040517f5521068100000000000000000000000000000000000000000000000000000000815260040160405180910390fd5b8060035f6101000a81548173ffffffffffffffffffffffffffffffffffffffff021916908373ffffffffffffffffffffffffffffffffffffffff16021790555050565b60025f9054906101000a900473ffffffffffffffffffffffffffffffffffffffff1681565b61060161244a565b61060a816104da565b610640576040517f21e660fc00000000000000000000000000000000000000000000000000000000815260040160405180910390fd5b3373ffffffffffffffffffffffffffffffffffffffff168173ffffffffffffffffffffffffffffffffffffffff16036106a5576040517f55d27a9c00000000000000000000000000000000000000000000000000000000815260040160405180910390fd5b5f60045f8373ffffffffffffffffffffffffffffffffffffffff1673ffffffffffffffffffffffffffffffffffffffff1681526020019081526020015f2090506106ee82612490565b5f816004015482600201546107039190612be1565b90505f825f015483600701546107199190612c41565b90505f81845f015461072b9190612c71565b90505f606460698561073d9190612c71565b6107479190612c41565b90505f82821061075c57855f0154905061076b565b83826107689190612c41565b90505b5f81875f015461077b9190612cb2565b90505f876001015f9054906101000a900473ffffffffffffffffffffffffffffffffffffffff1690508873ffffffffffffffffffffffffffffffffffffffff167fc6c94c322e79855fb0c9eb5803a24f6c5cb609d0a394f05a799403080a535f2b88858b6006016040516107f193929190612dd5565b60405180910390a260045f8a73ffffffffffffffffffffffffffffffffffffffff1673ffffffffffffffffffffffffffffffffffffffff1681526020019081526020015f205f5f82015f9055600182015f6101000a81549073ffffffffffffffffffffffffffffffffffffffff0219169055600282015f9055600382015f9055600482015f9055600582015f9055600682015f61088e919061263a565b600782015f905550505f60025f9054906101000a900473ffffffffffffffffffffffffffffffffffffffff1673ffffffffffffffffffffffffffffffffffffffff166323b872dd33308b6040518463ffffffff1660e01b81526004016108f693929190612e11565b6020604051808303815f875af1158015610912573d5f5f3e3d5ffd5b505050506040513d601f19601f820116820180604052508101906109369190612e70565b9050806109a15760025f9054906101000a900473ffffffffffffffffffffffffffffffffffffffff1633308a6040517f9fca2ffd0000000000000000000000000000000000000000000000000000000081526004016109989493929190612e9b565b60405180910390fd5b5f8273ffffffffffffffffffffffffffffffffffffffff1663a9059cbb33876040518363ffffffff1660e01b81526004016109dd929190612ede565b6020604051808303815f875af11580156109f9573d5f5f3e3d5ffd5b505050506040513d601f19601f82011682018060405250810190610a1d9190612e70565b905080610a56576040517f90b8ec1800000000000000000000000000000000000000000000000000000000815260040160405180910390fd5b5f841115610b26575f8373ffffffffffffffffffffffffffffffffffffffff1663a9059cbb8d876040518363ffffffff1660e01b8152600401610a9a929190612ede565b6020604051808303815f875af1158015610ab6573d5f5f3e3d5ffd5b505050506040513d601f19601f82011682018060405250810190610ada9190612e70565b905080610b245783308d876040517f9fca2ffd000000000000000000000000000000000000000000000000000000008152600401610b1b9493929190612e9b565b60405180910390fd5b505b50505050505050505050610b38612569565b50565b606981565b610b4861244a565b5f60045f3373ffffffffffffffffffffffffffffffffffffffff1673ffffffffffffffffffffffffffffffffffffffff1681526020019081526020015f2090505f816002015403610bd057336040517f19b815aa000000000000000000000000000000000000000000000000000000008152600401610bc79190612b3c565b60405180910390fd5b5f8203610c1457816040517f3728b83d000000000000000000000000000000000000000000000000000000008152600401610c0b91906127e7565b60405180910390fd5b610c1d33612490565b5f81600401548260020154610c329190612be1565b90505f81841115610c4557819050610c49565b8390505b5f5f84600401548311610c785782856004015f828254610c699190612cb2565b92505081905550829150610cb5565b84600401549150846004015483610c8f9190612cb2565b90505f856004018190555080856002015f828254610cad9190612cb2565b925050819055505b60025f9054906101000a900473ffffffffffffffffffffffffffffffffffffffff1673ffffffffffffffffffffffffffffffffffffffff166323b872dd3330866040518463ffffffff1660e01b8152600401610d1393929190612e11565b6020604051808303815f875af1158015610d2f573d5f5f3e3d5ffd5b505050506040513d601f19601f82011682018060405250810190610d539190612e70565b610d89576040517f90b8ec1800000000000000000000000000000000000000000000000000000000815260040160405180910390fd5b3373ffffffffffffffffffffffffffffffffffffffff167f1b8cd61ed43bec7c6bdad3a18ffee613f99c853d16c50678d248d879e1b434388284604051610dd1929190612f05565b60405180910390a25050505050610de6612569565b50565b600a81565b610df661244a565b60055f8573ffffffffffffffffffffffffffffffffffffffff1673ffffffffffffffffffffffffffffffffffffffff1681526020019081526020015f205f9054906101000a900460ff16610e8157836040517f06439c6b000000000000000000000000000000000000000000000000000000008152600401610e789190612b3c565b60405180910390fd5b5f8303610ec557826040517f3728b83d000000000000000000000000000000000000000000000000000000008152600401610ebc91906127e7565b60405180910390fd5b5f60045f3373ffffffffffffffffffffffffffffffffffffffff1673ffffffffffffffffffffffffffffffffffffffff1681526020019081526020015f2090505f73ffffffffffffffffffffffffffffffffffffffff16816001015f9054906101000a900473ffffffffffffffffffffffffffffffffffffffff1673ffffffffffffffffffffffffffffffffffffffff1603610fcf5784816001015f6101000a81548173ffffffffffffffffffffffffffffffffffffffff021916908373ffffffffffffffffffffffffffffffffffffffff16021790555042816003018190555042816005018190555082816006019081610fc091906130b1565b50818160070181905550611063565b8473ffffffffffffffffffffffffffffffffffffffff16816001015f9054906101000a900473ffffffffffffffffffffffffffffffffffffffff1673ffffffffffffffffffffffffffffffffffffffff161461106257846040517fe3f936cd0000000000000000000000000000000000000000000000000000000081526004016110599190612b3c565b60405180910390fd5b5b83815f015f8282546110759190612be1565b925050819055505f8573ffffffffffffffffffffffffffffffffffffffff166323b872dd3330886040518463ffffffff1660e01b81526004016110ba93929190612e11565b6020604051808303815f875af11580156110d6573d5f5f3e3d5ffd5b505050506040513d601f19601f820116820180604052508101906110fa9190612e70565b90508061114457853330876040517f9fca2ffd00000000000000000000000000000000000000000000000000000000815260040161113b9493929190612e9b565b60405180910390fd5b8573ffffffffffffffffffffffffffffffffffffffff163373ffffffffffffffffffffffffffffffffffffffff167fc95fb4c5c871e79d9e834d40706201aec60bfce06d7652b4738394a3edac677487876040516111a3929190613180565b60405180910390a350506111b5612569565b50505050565b6111c36123c3565b5f60025f9054906101000a900473ffffffffffffffffffffffffffffffffffffffff1673ffffffffffffffffffffffffffffffffffffffff166370a08231306040518263ffffffff1660e01b815260040161121e9190612b3c565b602060405180830381865afa158015611239573d5f5f3e3d5ffd5b505050506040513d601f19601f8201168201806040525081019061125d91906131c2565b90505f8103611298576040517f90b8ec1800000000000000000000000000000000000000000000000000000000815260040160405180910390fd5b5f60025f9054906101000a900473ffffffffffffffffffffffffffffffffffffffff1673ffffffffffffffffffffffffffffffffffffffff1663a9059cbb6112de611981565b846040518363ffffffff1660e01b81526004016112fc929190612ede565b6020604051808303815f875af1158015611318573d5f5f3e3d5ffd5b505050506040513d601f19601f8201168201806040525081019061133c9190612e70565b905080611375576040517f90b8ec1800000000000000000000000000000000000000000000000000000000815260040160405180910390fd5b5050565b600581565b61138661244a565b5f60045f3373ffffffffffffffffffffffffffffffffffffffff1673ffffffffffffffffffffffffffffffffffffffff1681526020019081526020015f20905081815f0154101561141357805f0154826040517f7d5d074500000000000000000000000000000000000000000000000000000000815260040161140a929190612f05565b60405180910390fd5b5f816002015411156114db5761142833612490565b5f815f0154826007015461143c9190612c41565b90505f8184845f015461144f9190612cb2565b6114599190612c71565b90505f836004015484600201546114709190612be1565b90505f816064846114819190612c71565b61148b9190612c41565b905060968110156114d6578060966040517f5033ec120000000000000000000000000000000000000000000000000000000081526004016114cd929190612f05565b60405180910390fd5b505050505b81815f015f8282546114ed9190612cb2565b925050819055505f816001015f9054906101000a900473ffffffffffffffffffffffffffffffffffffffff1673ffffffffffffffffffffffffffffffffffffffff1663a9059cbb33856040518363ffffffff1660e01b8152600401611553929190612ede565b6020604051808303815f875af115801561156f573d5f5f3e3d5ffd5b505050506040513d601f19601f820116820180604052508101906115939190612e70565b90508061160057816001015f9054906101000a900473ffffffffffffffffffffffffffffffffffffffff163033856040517f9fca2ffd0000000000000000000000000000000000000000000000000000000081526004016115f79493929190612e9b565b60405180910390fd5b3373ffffffffffffffffffffffffffffffffffffffff167fc30fcfbcaac9e0deffa719714eaa82396ff506a0d0d0eebe170830177288715d8460405161164691906127e7565b60405180910390a25050611658612569565b50565b6005602052805f5260405f205f915054906101000a900460ff1681565b6116806123c3565b5f73ffffffffffffffffffffffffffffffffffffffff168173ffffffffffffffffffffffffffffffffffffffff16036116e5576040517f1eb00b0600000000000000000000000000000000000000000000000000000000815260040160405180910390fd5b60055f8273ffffffffffffffffffffffffffffffffffffffff1673ffffffffffffffffffffffffffffffffffffffff1681526020019081526020015f205f9054906101000a900460ff1615611766576040517fc78e82ad00000000000000000000000000000000000000000000000000000000815260040160405180910390fd5b600160055f8373ffffffffffffffffffffffffffffffffffffffff1673ffffffffffffffffffffffffffffffffffffffff1681526020019081526020015f205f6101000a81548160ff0219169083151502179055508073ffffffffffffffffffffffffffffffffffffffff167fea3145306a87baeba6bb1a8b5c8d3744f840a81cb436b3509f64fc978600cdfb60405160405180910390a250565b6118096123c3565b6118125f612572565b565b6004602052805f5260405f205f91509050805f015490806001015f9054906101000a900473ffffffffffffffffffffffffffffffffffffffff169080600201549080600301549080600401549080600501549080600601805461187690612d12565b80601f01602080910402602001604051908101604052809291908181526020018280546118a290612d12565b80156118ed5780601f106118c4576101008083540402835291602001916118ed565b820191905f5260205f20905b8154815290600101906020018083116118d057829003601f168201915b5050505050908060070154905088565b6119056123c3565b5f60055f8373ffffffffffffffffffffffffffffffffffffffff1673ffffffffffffffffffffffffffffffffffffffff1681526020019081526020015f205f6101000a81548160ff02191690831515021790555050565b60035f9054906101000a900473ffffffffffffffffffffffffffffffffffffffff1681565b5f5f5f9054906101000a900473ffffffffffffffffffffffffffffffffffffffff16905090565b607881565b6119b561244a565b5f60045f3373ffffffffffffffffffffffffffffffffffffffff1673ffffffffffffffffffffffffffffffffffffffff1681526020019081526020015f2090505f815f015403611a3c57336040517f2e4e92db000000000000000000000000000000000000000000000000000000008152600401611a339190612b3c565b60405180910390fd5b5f8203611a8057816040517f3728b83d000000000000000000000000000000000000000000000000000000008152600401611a7791906127e7565b60405180910390fd5b611a8933612490565b5f611a9333611f03565b905080831115611adc5782816040517fb07e3bc4000000000000000000000000000000000000000000000000000000008152600401611ad3929190612f05565b60405180910390fd5b5f612710600a85611aed9190612c71565b611af79190612c41565b90505f8185611b069190612cb2565b905084846002015f828254611b1b9190612be1565b9250508190555060025f9054906101000a900473ffffffffffffffffffffffffffffffffffffffff1673ffffffffffffffffffffffffffffffffffffffff1663a9059cbb33836040518363ffffffff1660e01b8152600401611b7e929190612ede565b6020604051808303815f875af1158015611b9a573d5f5f3e3d5ffd5b505050506040513d601f19601f82011682018060405250810190611bbe9190612e70565b611bf4576040517f90b8ec1800000000000000000000000000000000000000000000000000000000815260040160405180910390fd5b3373ffffffffffffffffffffffffffffffffffffffff167feae9cfbc77fdd40ca899f36b608256063b2bc9d8178b0220f7ad513e178d67308284604051611c3c929190612f05565b60405180910390a250505050611c50612569565b50565b609681565b6301e1338081565b5f5f5f5f5f5f5f60045f8973ffffffffffffffffffffffffffffffffffffffff1673ffffffffffffffffffffffffffffffffffffffff1681526020019081526020015f20604051806101000160405290815f8201548152602001600182015f9054906101000a900473ffffffffffffffffffffffffffffffffffffffff1673ffffffffffffffffffffffffffffffffffffffff1673ffffffffffffffffffffffffffffffffffffffff16815260200160028201548152602001600382015481526020016004820154815260200160058201548152602001600682018054611d4690612d12565b80601f0160208091040260200160405190810160405280929190818152602001828054611d7290612d12565b8015611dbd5780601f10611d9457610100808354040283529160200191611dbd565b820191905f5260205f20905b815481529060010190602001808311611da057829003601f168201915b505050505081526020016007820154815250509050805f0151965080602001519550806040015194505f8160a0015142611df79190612cb2565b90505f6301e133806064611e0b9190612c71565b8260058560400151611e1d9190612c71565b611e279190612c71565b611e319190612c41565b90508888888386608001518760400151611e4b9190612be1565b611e559190612be1565b611e5e8e612167565b611e678f611f03565b98509850985098509850985050505091939550919395565b611e876123c3565b5f73ffffffffffffffffffffffffffffffffffffffff168173ffffffffffffffffffffffffffffffffffffffff1603611ef7575f6040517f1e4fbdf7000000000000000000000000000000000000000000000000000000008152600401611eee9190612b3c565b60405180910390fd5b611f0081612572565b50565b5f5f60045f8473ffffffffffffffffffffffffffffffffffffffff1673ffffffffffffffffffffffffffffffffffffffff1681526020019081526020015f20604051806101000160405290815f8201548152602001600182015f9054906101000a900473ffffffffffffffffffffffffffffffffffffffff1673ffffffffffffffffffffffffffffffffffffffff1673ffffffffffffffffffffffffffffffffffffffff16815260200160028201548152602001600382015481526020016004820154815260200160058201548152602001600682018054611fe490612d12565b80601f016020809104026020016040519081016040528092919081815260200182805461201090612d12565b801561205b5780601f106120325761010080835404028352916020019161205b565b820191905f5260205f20905b81548152906001019060200180831161203e57829003601f168201915b5050505050815260200160078201548152505090505f815f015103612083575f915050612162565b5f815f01518260e001516120979190612c41565b90505f81835f01516120a99190612c71565b90505f60966064836120bb9190612c71565b6120c59190612c41565b90505f8460a00151426120d89190612cb2565b90505f6301e1338060646120ec9190612c71565b82600588604001516120fe9190612c71565b6121089190612c71565b6121129190612c41565b90505f818760800151886040015161212a9190612be1565b6121349190612be1565b905083811061214c575f975050505050505050612162565b80846121589190612cb2565b9750505050505050505b919050565b5f5f60045f8473ffffffffffffffffffffffffffffffffffffffff1673ffffffffffffffffffffffffffffffffffffffff1681526020019081526020015f20604051806101000160405290815f8201548152602001600182015f9054906101000a900473ffffffffffffffffffffffffffffffffffffffff1673ffffffffffffffffffffffffffffffffffffffff1673ffffffffffffffffffffffffffffffffffffffff1681526020016002820154815260200160038201548152602001600482015481526020016005820154815260200160068201805461224890612d12565b80601f016020809104026020016040519081016040528092919081815260200182805461227490612d12565b80156122bf5780601f10612296576101008083540402835291602001916122bf565b820191905f5260205f20905b8154815290600101906020018083116122a257829003601f168201915b5050505050815260200160078201548152505090505f816040015190505f810361230d577fffffffffffffffffffffffffffffffffffffffffffffffffffffffffffffffff925050506123be565b5f825f01518360e001516123219190612c41565b90505f81845f01516123339190612c71565b90505f8460a00151426123469190612cb2565b90505f6301e13380606461235a9190612c71565b826005876123689190612c71565b6123729190612c71565b61237c9190612c41565b90505f818760800151876123909190612be1565b61239a9190612be1565b9050806064856123aa9190612c71565b6123b49190612c41565b9750505050505050505b919050565b6123cb612633565b73ffffffffffffffffffffffffffffffffffffffff166123e9611981565b73ffffffffffffffffffffffffffffffffffffffff16146124485761240c612633565b6040517f118cdaa700000000000000000000000000000000000000000000000000000000815260040161243f9190612b3c565b60405180910390fd5b565b600260015403612486576040517f3ee5aeb500000000000000000000000000000000000000000000000000000000815260040160405180910390fd5b6002600181905550565b5f60045f8373ffffffffffffffffffffffffffffffffffffffff1673ffffffffffffffffffffffffffffffffffffffff1681526020019081526020015f2090505f816002015490505f81036124e6575050612566565b5f8260050154426124f79190612cb2565b90505f810361250857505050612566565b5f6301e13380606461251a9190612c71565b826005856125289190612c71565b6125329190612c71565b61253c9190612c41565b905080846004015f8282546125519190612be1565b92505081905550428460050181905550505050505b50565b60018081905550565b5f5f5f9054906101000a900473ffffffffffffffffffffffffffffffffffffffff169050815f5f6101000a81548173ffffffffffffffffffffffffffffffffffffffff021916908373ffffffffffffffffffffffffffffffffffffffff1602179055508173ffffffffffffffffffffffffffffffffffffffff168173ffffffffffffffffffffffffffffffffffffffff167f8be0079c531659141344cd1fd0a4f28419497f9722a3daafe3b4186f6b6457e060405160405180910390a35050565b5f33905090565b50805461264690612d12565b5f825580601f106126575750612674565b601f0160209004905f5260205f20908101906126739190612677565b5b50565b5b8082111561268e575f815f905550600101612678565b5090565b5f604051905090565b5f5ffd5b5f5ffd5b5f73ffffffffffffffffffffffffffffffffffffffff82169050919050565b5f6126cc826126a3565b9050919050565b6126dc816126c2565b81146126e6575f5ffd5b50565b5f813590506126f7816126d3565b92915050565b5f602082840312156127125761271161269b565b5b5f61271f848285016126e9565b91505092915050565b5f8115159050919050565b61273c81612728565b82525050565b5f6020820190506127555f830184612733565b92915050565b5f819050919050565b5f61277e612779612774846126a3565b61275b565b6126a3565b9050919050565b5f61278f82612764565b9050919050565b5f6127a082612785565b9050919050565b6127b081612796565b82525050565b5f6020820190506127c95f8301846127a7565b92915050565b5f819050919050565b6127e1816127cf565b82525050565b5f6020820190506127fa5f8301846127d8565b92915050565b612809816127cf565b8114612813575f5ffd5b50565b5f8135905061282481612800565b92915050565b5f6020828403121561283f5761283e61269b565b5b5f61284c84828501612816565b91505092915050565b5f5ffd5b5f5ffd5b5f601f19601f8301169050919050565b7f4e487b71000000000000000000000000000000000000000000000000000000005f52604160045260245ffd5b6128a38261285d565b810181811067ffffffffffffffff821117156128c2576128c161286d565b5b80604052505050565b5f6128d4612692565b90506128e0828261289a565b919050565b5f67ffffffffffffffff8211156128ff576128fe61286d565b5b6129088261285d565b9050602081019050919050565b828183375f83830152505050565b5f612935612930846128e5565b6128cb565b90508281526020810184848401111561295157612950612859565b5b61295c848285612915565b509392505050565b5f82601f83011261297857612977612855565b5b8135612988848260208601612923565b91505092915050565b5f5f5f5f608085870312156129a9576129a861269b565b5b5f6129b6878288016126e9565b94505060206129c787828801612816565b935050604085013567ffffffffffffffff8111156129e8576129e761269f565b5b6129f487828801612964565b9250506060612a0587828801612816565b91505092959194509250565b612a1a816126c2565b82525050565b5f81519050919050565b5f82825260208201905092915050565b8281835e5f83830152505050565b5f612a5282612a20565b612a5c8185612a2a565b9350612a6c818560208601612a3a565b612a758161285d565b840191505092915050565b5f61010082019050612a945f83018b6127d8565b612aa1602083018a612a11565b612aae60408301896127d8565b612abb60608301886127d8565b612ac860808301876127d8565b612ad560a08301866127d8565b81810360c0830152612ae78185612a48565b9050612af660e08301846127d8565b9998505050505050505050565b5f612b0d82612785565b9050919050565b612b1d81612b03565b82525050565b5f602082019050612b365f830184612b14565b92915050565b5f602082019050612b4f5f830184612a11565b92915050565b5f60c082019050612b685f8301896127d8565b612b756020830188612a11565b612b8260408301876127d8565b612b8f60608301866127d8565b612b9c60808301856127d8565b612ba960a08301846127d8565b979650505050505050565b7f4e487b71000000000000000000000000000000000000000000000000000000005f52601160045260245ffd5b5f612beb826127cf565b9150612bf6836127cf565b9250828201905080821115612c0e57612c0d612bb4565b5b92915050565b7f4e487b71000000000000000000000000000000000000000000000000000000005f52601260045260245ffd5b5f612c4b826127cf565b9150612c56836127cf565b925082612c6657612c65612c14565b5b828204905092915050565b5f612c7b826127cf565b9150612c86836127cf565b9250828202612c94816127cf565b91508282048414831517612cab57612caa612bb4565b5b5092915050565b5f612cbc826127cf565b9150612cc7836127cf565b9250828203905081811115612cdf57612cde612bb4565b5b92915050565b7f4e487b71000000000000000000000000000000000000000000000000000000005f52602260045260245ffd5b5f6002820490506001821680612d2957607f821691505b602082108103612d3c57612d3b612ce5565b5b50919050565b5f819050815f5260205f209050919050565b5f8154612d6081612d12565b612d6a8186612a2a565b9450600182165f8114612d845760018114612d9a57612dcc565b60ff198316865281151560200286019350612dcc565b612da385612d42565b5f5b83811015612dc457815481890152600182019150602081019050612da5565b808801955050505b50505092915050565b5f606082019050612de85f8301866127d8565b612df560208301856127d8565b8181036040830152612e078184612d54565b9050949350505050565b5f606082019050612e245f830186612a11565b612e316020830185612a11565b612e3e60408301846127d8565b949350505050565b612e4f81612728565b8114612e59575f5ffd5b50565b5f81519050612e6a81612e46565b92915050565b5f60208284031215612e8557612e8461269b565b5b5f612e9284828501612e5c565b91505092915050565b5f608082019050612eae5f830187612a11565b612ebb6020830186612a11565b612ec86040830185612a11565b612ed560608301846127d8565b95945050505050565b5f604082019050612ef15f830185612a11565b612efe60208301846127d8565b9392505050565b5f604082019050612f185f8301856127d8565b612f2560208301846127d8565b9392505050565b5f6020601f8301049050919050565b5f82821b905092915050565b5f60088302612f767fffffffffffffffffffffffffffffffffffffffffffffffffffffffffffffffff82612f3b565b612f808683612f3b565b95508019841693508086168417925050509392505050565b5f612fb2612fad612fa8846127cf565b61275b565b6127cf565b9050919050565b5f819050919050565b612fcb83612f98565b612fdf612fd782612fb9565b848454612f47565b825550505050565b5f5f905090565b612ff6612fe7565b613001818484612fc2565b505050565b5b81811015613024576130195f82612fee565b600181019050613007565b5050565b601f8211156130695761303a81612d42565b61304384612f2c565b81016020851015613052578190505b61306661305e85612f2c565b830182613006565b50505b505050565b5f82821c905092915050565b5f6130895f198460080261306e565b1980831691505092915050565b5f6130a1838361307a565b9150826002028217905092915050565b6130ba82612a20565b67ffffffffffffffff8111156130d3576130d261286d565b5b6130dd8254612d12565b6130e8828285613028565b5f60209050601f831160018114613119575f8415613107578287015190505b6131118582613096565b865550613178565b601f19841661312786612d42565b5f5b8281101561314e57848901518255600182019150602085019450602081019050613129565b8683101561316b5784890151613167601f89168261307a565b8355505b6001600288020188555050505b505050505050565b5f6040820190506131935f8301856127d8565b81810360208301526131a58184612a48565b90509392505050565b5f815190506131bc81612800565b92915050565b5f602082840312156131d7576131d661269b565b5b5f6131e4848285016131ae565b9150509291505056fea264697066735822122070fb456f55e23e5520f232ff70c01aba0be3483d0fa41ddd8737b02e8de20fa164736f6c634300081e0033","linkReferences":{}},"methodIdentifiers":{"COLLATERAL_RATIO()":"d9e69a05","INTEREST_RATE()":"5b72a33a","LIQUIDATION_BONUS()":"3574d4c4","LIQUIDATION_THRESHOLD()":"90a8ae9b","ORIGINATION_FEE()":"3aa3fe79","SECONDS_PER_YEAR()":"e6a69ab8","addSupportedToken(address)":"6d69fcaf","borrow(uint256)":"c5ebeaec","depositCollateral(address,uint256,string,uint256)":"40125870","getHealthFactor(address)":"fe6bcd7c","getLoanDetails(address)":"e8a7da8e","getMaxBorrow(address)":"fd1c317a","heNGN()":"26c98b38","isLiquidatable(address)":"042e02cf","liquidate(address)":"2f865568","loans(address)":"73b4086b","oracle()":"7dc0d1d0","owner()":"8da5cb5b","removeSupportedToken(address)":"76319190","renounceOwnership()":"715018a6","repay(uint256)":"371fd8e6","supportedTokens(address)":"68c4ac26","transferOwnership(address)":"f2fde38b","updateOracle(address)":"1cb44dfc","withdrawCollateral(uint256)":"6112fe2e","withdrawFees()":"476343ee"},"id":20}