{"abi":[{"type":"constructor","inputs":[{"name":"_heNGN","type":"address","internalType":"address"},{"name":"_oracle","type":"address","internalType":"address"},{"name":"_masterRWAToken","type":"address","internalType":"address"}],"stateMutability":"nonpayable"},{"type":"function","name":"COLLATERAL_RATIO","inputs":[],"outputs":[{"name":"","type":"uint256","internalType":"uint256"}],"stateMutability":"view"},{"type":"function","name":"EXTENSION_TERM","inputs":[],"outputs":[{"name":"","type":"uint256","internalType":"uint256"}],"stateMutability":"view"},{"type":"function","name":"INTEREST_RATE","inputs":[],"outputs":[{"name":"","type":"uint256","internalType":"uint256"}],"stateMutability":"view"},{"type":"function","name":"LIQUIDATION_BONUS","inputs":[],"outputs":[{"name":"","type":"uint256","internalType":"uint256"}],"stateMutability":"view"},{"type":"function","name":"LIQUIDATION_THRESHOLD","inputs":[],"outputs":[{"name":"","type":"uint256","internalType":"uint256"}],"stateMutability":"view"},{"type":"function","name":"LOAN_TERM","inputs":[],"outputs":[{"name":"","type":"uint256","internalType":"uint256"}],"stateMutability":"view"},{"type":"function","name":"ORIGINATION_FEE","inputs":[],"outputs":[{"name":"","type":"uint256","internalType":"uint256"}],"stateMutability":"view"},{"type":"function","name":"SECONDS_PER_YEAR","inputs":[],"outputs":[{"name":"","type":"uint256","internalType":"uint256"}],"stateMutability":"view"},{"type":"function","name":"addSupportedToken","inputs":[{"name":"token","type":"address","internalType":"address"}],"outputs":[],"stateMutability":"nonpayable"},{"type":"function","name":"associateWithHeNGN","inputs":[],"outputs":[],"stateMutability":"nonpayable"},{"type":"function","name":"borrow","inputs":[{"name":"amount","type":"uint256","internalType":"uint256"}],"outputs":[],"stateMutability":"nonpayable"},{"type":"function","name":"depositCollateral","inputs":[{"name":"token","type":"address","internalType":"address"},{"name":"amount","type":"uint256","internalType":"uint256"},{"name":"propertyId","type":"string","internalType":"string"},{"name":"propertyValue","type":"uint256","internalType":"uint256"}],"outputs":[],"stateMutability":"nonpayable"},{"type":"function","name":"extendLoan","inputs":[],"outputs":[],"stateMutability":"nonpayable"},{"type":"function","name":"getHealthFactor","inputs":[{"name":"user","type":"address","internalType":"address"}],"outputs":[{"name":"","type":"uint256","internalType":"uint256"}],"stateMutability":"view"},{"type":"function","name":"getLoanDetails","inputs":[{"name":"user","type":"address","internalType":"address"}],"outputs":[{"name":"collateralAmount","type":"uint256","internalType":"uint256"},{"name":"collateralToken","type":"address","internalType":"address"},{"name":"borrowedAmount","type":"uint256","internalType":"uint256"},{"name":"totalDebt","type":"uint256","internalType":"uint256"},{"name":"healthFactor","type":"uint256","internalType":"uint256"},{"name":"maxBorrow","type":"uint256","internalType":"uint256"},{"name":"dueDate","type":"uint256","internalType":"uint256"},{"name":"extensionUsed","type":"bool","internalType":"bool"}],"stateMutability":"view"},{"type":"function","name":"getMaxBorrow","inputs":[{"name":"user","type":"address","internalType":"address"}],"outputs":[{"name":"","type":"uint256","internalType":"uint256"}],"stateMutability":"view"},{"type":"function","name":"heNGN","inputs":[],"outputs":[{"name":"","type":"address","internalType":"contract IERC20"}],"stateMutability":"view"},{"type":"function","name":"isLiquidatable","inputs":[{"name":"user","type":"address","internalType":"address"}],"outputs":[{"name":"","type":"bool","internalType":"bool"}],"stateMutability":"view"},{"type":"function","name":"liquidate","inputs":[{"name":"borrower","type":"address","internalType":"address"}],"outputs":[],"stateMutability":"nonpayable"},{"type":"function","name":"loans","inputs":[{"name":"","type":"address","internalType":"address"}],"outputs":[{"name":"collateralAmount","type":"uint256","internalType":"uint256"},{"name":"collateralToken","type":"address","internalType":"address"},{"name":"borrowedAmount","type":"uint256","internalType":"uint256"},{"name":"timestamp","type":"uint256","internalType":"uint256"},{"name":"accruedInterest","type":"uint256","internalType":"uint256"},{"name":"lastInterestUpdate","type":"uint256","internalType":"uint256"},{"name":"propertyId","type":"string","internalType":"string"},{"name":"propertyValue","type":"uint256","internalType":"uint256"},{"name":"dueDate","type":"uint256","internalType":"uint256"},{"name":"extensionUsed","type":"bool","internalType":"bool"}],"stateMutability":"view"},{"type":"function","name":"oracle","inputs":[],"outputs":[{"name":"","type":"address","internalType":"contract IPriceOracle"}],"stateMutability":"view"},{"type":"function","name":"owner","inputs":[],"outputs":[{"name":"","type":"address","internalType":"address"}],"stateMutability":"view"},{"type":"function","name":"removeSupportedToken","inputs":[{"name":"token","type":"address","internalType":"address"}],"outputs":[],"stateMutability":"nonpayable"},{"type":"function","name":"renounceOwnership","inputs":[],"outputs":[],"stateMutability":"nonpayable"},{"type":"function","name":"repay","inputs":[{"name":"amount","type":"uint256","internalType":"uint256"}],"outputs":[],"stateMutability":"nonpayable"},{"type":"function","name":"supportedTokens","inputs":[{"name":"","type":"address","internalType":"address"}],"outputs":[{"name":"","type":"bool","internalType":"bool"}],"stateMutability":"view"},{"type":"function","name":"transferOwnership","inputs":[{"name":"newOwner","type":"address","internalType":"address"}],"outputs":[],"stateMutability":"nonpayable"},{"type":"function","name":"updateOracle","inputs":[{"name":"newOracle","type":"address","internalType":"address"}],"outputs":[],"stateMutability":"nonpayable"},{"type":"function","name":"withdrawCollateral","inputs":[{"name":"amount","type":"uint256","internalType":"uint256"}],"outputs":[],"stateMutability":"nonpayable"},{"type":"function","name":"withdrawFees","inputs":[],"outputs":[],"stateMutability":"nonpayable"},{"type":"event","name":"Borrowed","inputs":[{"name":"user","type":"address","indexed":true,"internalType":"address"},{"name":"amount","type":"uint256","indexed":false,"internalType":"uint256"},{"name":"fee","type":"uint256","indexed":false,"internalType":"uint256"}],"anonymous":false},{"type":"event","name":"CollateralDeposited","inputs":[{"name":"user","type":"address","indexed":true,"internalType":"address"},{"name":"token","type":"address","indexed":true,"internalType":"address"},{"name":"amount","type":"uint256","indexed":false,"internalType":"uint256"},{"name":"propertyId","type":"string","indexed":false,"internalType":"string"}],"anonymous":false},{"type":"event","name":"CollateralWithdrawn","inputs":[{"name":"user","type":"address","indexed":true,"internalType":"address"},{"name":"amount","type":"uint256","indexed":false,"internalType":"uint256"}],"anonymous":false},{"type":"event","name":"Liquidated","inputs":[{"name":"borrower","type":"address","indexed":true,"internalType":"address"},{"name":"debtCovered","type":"uint256","indexed":false,"internalType":"uint256"},{"name":"collateralSeized","type":"uint256","indexed":false,"internalType":"uint256"},{"name":"propertyId","type":"string","indexed":false,"internalType":"string"}],"anonymous":false},{"type":"event","name":"LoanExtended","inputs":[{"name":"user","type":"address","indexed":true,"internalType":"address"},{"name":"newDueDate","type":"uint256","indexed":false,"internalType":"uint256"},{"name":"interestPaid","type":"uint256","indexed":false,"internalType":"uint256"}],"anonymous":false},{"type":"event","name":"OwnershipTransferred","inputs":[{"name":"previousOwner","type":"address","indexed":true,"internalType":"address"},{"name":"newOwner","type":"address","indexed":true,"internalType":"address"}],"anonymous":false},{"type":"event","name":"Repaid","inputs":[{"name":"user","type":"address","indexed":true,"internalType":"address"},{"name":"principal","type":"uint256","indexed":false,"internalType":"uint256"},{"name":"interest","type":"uint256","indexed":false,"internalType":"uint256"}],"anonymous":false},{"type":"event","name":"TokenSupported","inputs":[{"name":"token","type":"address","indexed":true,"internalType":"address"}],"anonymous":false},{"type":"error","name":"DifferentCollateral","inputs":[{"name":"token","type":"address","internalType":"address"}]},{"type":"error","name":"InsufficientCollateral","inputs":[{"name":"requested","type":"uint256","internalType":"uint256"},{"name":"maxBorrow","type":"uint256","internalType":"uint256"}]},{"type":"error","name":"InsufficientCollateralToWithdraw","inputs":[{"name":"available","type":"uint256","internalType":"uint256"},{"name":"requested","type":"uint256","internalType":"uint256"}]},{"type":"error","name":"InvalidAmount","inputs":[{"name":"amount","type":"uint256","internalType":"uint256"}]},{"type":"error","name":"InvalidHeNGNAddress","inputs":[]},{"type":"error","name":"InvalidOracleAddress","inputs":[]},{"type":"error","name":"InvalidTokenAddress","inputs":[]},{"type":"error","name":"LendingPool__TransferFailed","inputs":[{"name":"token","type":"address","internalType":"address"},{"name":"from","type":"address","internalType":"address"},{"name":"to","type":"address","internalType":"address"},{"name":"amount","type":"uint256","internalType":"uint256"}]},{"type":"error","name":"NoActiveLoan","inputs":[{"name":"user","type":"address","internalType":"address"}]},{"type":"error","name":"NoCollateral","inputs":[{"name":"user","type":"address","internalType":"address"}]},{"type":"error","name":"OwnableInvalidOwner","inputs":[{"name":"owner","type":"address","internalType":"address"}]},{"type":"error","name":"OwnableUnauthorizedAccount","inputs":[{"name":"account","type":"address","internalType":"address"}]},{"type":"error","name":"PositionHealthy","inputs":[]},{"type":"error","name":"ReentrancyGuardReentrantCall","inputs":[]},{"type":"error","name":"SelfLiquidationNotAllowed","inputs":[]},{"type":"error","name":"TokenAlreadySupported","inputs":[]},{"type":"error","name":"TokenNotSupported","inputs":[{"name":"token","type":"address","internalType":"address"}]},{"type":"error","name":"TransferFailed","inputs":[]},{"type":"error","name":"Undercollateralized","inputs":[{"name":"newHealthFactor","type":"uint256","internalType":"uint256"},{"name":"requiredRatio","type":"uint256","internalType":"uint256"}]}],"bytecode":{"object":"0x60803461018957601f611f6f38819003918201601f19168301916001600160401b0383118484101761018d5780849260609460405283398101031261018957610047816101a1565b906100606040610059602084016101a1565b92016101a1565b3315610176575f8054336001600160a01b0319821681178355604051959290916001600160a01b0316907f8be0079c531659141344cd1fd0a4f28419497f9722a3daafe3b4186f6b6457e09080a3600180556001600160a01b0316918215610167576001600160a01b0316908115610158576001600160a01b03169182156101495760018060a01b0319600254161760025560018060a01b03196003541617600355805f52600560205260405f20600160ff198254161790557fea3145306a87baeba6bb1a8b5c8d3744f840a81cb436b3509f64fc978600cdfb5f80a2611db990816101b68239f35b630f58058360e11b5f5260045ffd5b635521068160e01b5f5260045ffd5b63d5275f3d60e01b5f5260045ffd5b631e4fbdf760e01b5f525f60045260245ffd5b5f80fd5b634e487b7160e01b5f52604160045260245ffd5b51906001600160a01b03821682036101895756fe60806040526004361015610011575f80fd5b5f3560e01c8063042e02cf1461174c5780631cb44dfc146116f157806326c98b38146116c95780632f865568146112b857806332a7d8de1461061f5780633574d4c41461129d578063371fd8e6146111365780633aa3fe7914610cfb5780634012587014610e115780634473248d14610df4578063476343ee14610d005780635b72a33a14610cfb5780636112fe2e14610b5357806368c4ac2614610b165780636d69fcaf14610a77578063715018a614610a2057806373b4086b1461095e578063763191901461091d5780637dc0d1d0146108f55780638da5cb5b146108ce57806390a8ae9b146108b3578063ab613af6146107cc578063c5ebeaec1461063f578063d9e69a0514610624578063e6a69ab81461061f578063e8a7da8e146104c3578063f2fde38b1461043e578063faa09e77146101b5578063fd1c317a146101925763fe6bcd7c14610163575f80fd5b3461018e57602036600319011261018e576020610186610181611779565b611bb0565b604051908152f35b5f80fd5b3461018e57602036600319011261018e5760206101866101b0611779565b611a87565b3461018e575f36600319011261018e576101cd611cec565b335f52600460205260405f2060028101541561042b576009810160ff8154166103ed576008820191825462278cff1981018181116102d55742106103a857421161036c5761021a33611d0c565b60048101918254928315610332576002546040516323b872dd60e01b81523360048201523060248201526044810186905290602090829060649082905f906001600160a01b03165af1908115610327575f916102f8575b50156102e9575f90558354936276a70085018095116102d557849055600160ff1982541617905560054291015560405191825260208201527f538fb9e5f4ba806fdb3b0dbce171ac907f5f25c7876fdf8b69c922b3690fe95d60403392a260018055005b634e487b7160e01b5f52601160045260245ffd5b6312171d8360e31b5f5260045ffd5b61031a915060203d602011610320575b61031281836117e5565b810190611a44565b86610271565b503d610308565b6040513d5f823e3d90fd5b60405162461bcd60e51b81526020600482015260126024820152714e6f20696e74657265737420746f2070617960701b6044820152606490fd5b60405162461bcd60e51b81526020600482015260146024820152734c6f616e20616c7265616479206f76657264756560601b6044820152606490fd5b60405162461bcd60e51b815260206004820152601760248201527f546f6f206561726c7920666f7220657874656e73696f6e0000000000000000006044820152606490fd5b60405162461bcd60e51b8152602060048201526016602482015275115e1d195b9cda5bdb88185b1c9958591e481d5cd95960521b6044820152606490fd5b630cdc0ad560e11b5f523360045260245ffd5b3461018e57602036600319011261018e57610457611779565b61045f611cc6565b6001600160a01b031680156104b0575f80546001600160a01b03198116831782556001600160a01b0316907f8be0079c531659141344cd1fd0a4f28419497f9722a3daafe3b4186f6b6457e09080a3005b631e4fbdf760e01b5f525f60045260245ffd5b3461018e57602036600319011261018e576104dc611779565b60018060a01b0381165f52600460205260405f20604051906104fd826117c8565b8054825260018060a01b036001820154169160208101928352600282015491604082019283526003810154606083015260048101549460808301958652600582015460a084019081526105526006840161183f565b60c0850152600783015460e085015260ff600960088501549461010087019586520154169361012081019415158552519560018060a01b039051169461059b8151925142611a21565b908051600a810290808204600a14901517156102d5576101009963bbf81e006105ca6105da956105d594611a0e565b0492519051906119e3565b6119e3565b906105ed6105e784611bb0565b93611a87565b93519451151595604051978852602088015260408701526060860152608085015260a084015260c083015260e0820152f35b61178f565b3461018e575f36600319011261018e57602060405160968152f35b3461018e57602036600319011261018e5760043561065b611cec565b335f52600460205260405f20908154156107b95780156107a75761067e33611d0c565b61068733611a87565b808211610791575060028201805492831580610785575b61076c575b50600a8202828104600a036102d5576127106106cb9104926106c58482611a21565b946119e3565b905560025460405163a9059cbb60e01b81523360048201526024810184905290602090829060449082905f906001600160a01b03165af1908115610327575f9161074d575b50156102e95760405191825260208201527feae9cfbc77fdd40ca899f36b608256063b2bc9d8178b0220f7ad513e178d673060403392a260018055005b610766915060203d6020116103205761031281836117e5565b83610710565b6301e133804201908142116102d55760080155836106a3565b5060088101541561069e565b90632c1f8ef160e21b5f5260045260245260445ffd5b633728b83d60e01b5f5260045260245ffd5b632e4e92db60e01b5f523360045260245ffd5b3461018e575f36600319011261018e576107e4611cc6565b60025460405163248a35ef60e11b81523060048201526001600160a01b0390911660248201526020816044815f6101675af18015610327575f90610876575b6016915060030b0361083157005b60405162461bcd60e51b815260206004820152601860248201527f546f6b656e206173736f63696174696f6e206661696c656400000000000000006044820152606490fd5b506020813d6020116108ab575b81610890602093836117e5565b8101031261018e57518060030b810361018e57601690610823565b3d9150610883565b3461018e575f36600319011261018e57602060405160788152f35b3461018e575f36600319011261018e575f546040516001600160a01b039091168152602090f35b3461018e575f36600319011261018e576003546040516001600160a01b039091168152602090f35b3461018e57602036600319011261018e57610936611779565b61093e611cc6565b6001600160a01b03165f908152600560205260409020805460ff19169055005b3461018e57602036600319011261018e576001600160a01b0361097f611779565b165f52600460205260405f20805460018060a01b03600183015416916002810154600382015491610a08600482015460058301546109bf6006850161183f565b9160078501549660ff6009600888015497015416966040519a8b9a8b5260208b015260408a01526060890152608088015260a087015261014060c08701526101408601906118df565b9260e085015261010084015215156101208301520390f35b3461018e575f36600319011261018e57610a38611cc6565b5f80546001600160a01b0319811682556001600160a01b03167f8be0079c531659141344cd1fd0a4f28419497f9722a3daafe3b4186f6b6457e08280a3005b3461018e57602036600319011261018e57610a90611779565b610a98611cc6565b6001600160a01b03168015610b0757805f52600560205260ff60405f205416610af857805f52600560205260405f20600160ff198254161790557fea3145306a87baeba6bb1a8b5c8d3744f840a81cb436b3509f64fc978600cdfb5f80a2005b63c78e82ad60e01b5f5260045ffd5b630f58058360e11b5f5260045ffd5b3461018e57602036600319011261018e576001600160a01b03610b37611779565b165f526005602052602060ff60405f2054166040519015158152f35b3461018e57602036600319011261018e57600435610b6f611cec565b335f52600460205260405f208054828110610ce45750600281018054610c6c575b5080610b9f8360019354611a21565b815501805460405163a9059cbb60e01b81523360048201526024810184905290602090829060449082905f906001600160a01b03165af1908115610327575f91610c4d575b5015610c1d57506040519081527fc30fcfbcaac9e0deffa719714eaa82396ff506a0d0d0eebe170830177288715d60203392a260018055005b54604051639fca2ffd60e01b8152918291610c499190339030906001600160a01b031660048601611a5c565b0390fd5b610c66915060203d6020116103205761031281836117e5565b83610be4565b610c7533611d0c565b610ca8610c9b6007840154610c9686610c90875480946119f0565b92611a21565b611a0e565b91546004840154906119e3565b6064820291808304606414901517156102d557610cc4916119f0565b6096811015610b9057632819f60960e11b5f52600452609660245260445ffd5b9050637d5d074560e01b5f5260045260245260445ffd5b6117ad565b3461018e575f36600319011261018e57610d18611cc6565b6002546040516370a0823160e01b8152306004820152906001600160a01b0316602082602481845afa918215610327575f92610dc0575b5081156102e9575f805460405163a9059cbb60e01b81526001600160a01b039091166004820152602481019390935260209183916044918391905af1908115610327575f91610da1575b50156102e957005b610dba915060203d6020116103205761031281836117e5565b81610d99565b9091506020813d602011610dec575b81610ddc602093836117e5565b8101031261018e57519082610d4f565b3d9150610dcf565b3461018e575f36600319011261018e5760206040516276a7008152f35b3461018e57608036600319011261018e57610e2a611779565b60443560243567ffffffffffffffff821161018e573660238301121561018e57816004013567ffffffffffffffff81116110e25760405192610e76601f8301601f1916602001856117e5565b818452366024838301011161018e57815f926024602093018387013784010152610e9e611cec565b6001600160a01b0383165f8181526005602052604090205490939060ff161561112357811561111057335f90815260046020526040902060018101805486906001600160a01b0316806110f657506bffffffffffffffffffffffff60a01b82541617905542600382015542600582015560068101845167ffffffffffffffff81116110e257610f2d8254611807565b601f81116110a7575b50806020601f8211600114611046575f9161103b575b508160011b915f199060031b1c19161790555b60643560078201555b610f738382546119e3565b90556040516323b872dd60e01b8152336004820152306024820152604481018390526020816064815f895af1908115610327575f9161101c575b5015610ffc57507fc95fb4c5c871e79d9e834d40706201aec60bfce06d7652b4738394a3edac6774906040519081526040602082015280610ff3339460408301906118df565b0390a360018055005b610c49604051928392639fca2ffd60e01b84523090339060048601611a5c565b611035915060203d6020116103205761031281836117e5565b85610fad565b905086015188610f4c565b5f8481528181209250601f198416905b81811061108f57509083600194939210611077575b5050811b019055610f5f565b8801515f1960f88460031b161c19169055888061106b565b9192602060018192868d015181550194019201611056565b6110d290835f5260205f20601f840160051c810191602085106110d8575b601f0160051c0190611a2e565b87610f36565b90915081906110c5565b634e487b7160e01b5f52604160045260245ffd5b149050610f68578463e3f936cd60e01b5f5260045260245ffd5b50633728b83d60e01b5f5260045260245ffd5b836306439c6b60e01b5f5260045260245ffd5b3461018e57602036600319011261018e57600435611152611cec565b335f52600460205260405f2090600282019081541561042b5780156107a75761117a33611d0c565b6004825493019081549061118e82866119e3565b90818111156112955750925b5f94828511611269575050506111b1828254611a21565b90555f60206111fb835b6002546040516323b872dd60e01b81523360048201523060248201526044810192909252909384926001600160a01b039092169183919082906064820190565b03925af1908115610327575f9161124a575b50156102e95760405191825260208201527f1b8cd61ed43bec7c6bdad3a18ffee613f99c853d16c50678d248d879e1b4343860403392a260018055005b611263915060203d6020116103205761031281836117e5565b8361120d565b5f9550936111fb9161128e879585976112856020979986611a21565b998a9255611a21565b90556111bb565b90509261119a565b3461018e575f36600319011261018e57602060405160698152f35b3461018e57602036600319011261018e576112d1611779565b6112d9611cec565b6112e281611903565b156116ba576001600160a01b0381163381146116ab57805f52600460205260405f209061130e83611d0c565b61132160028301546004840154906119e3565b600783015490611333845480936119f0565b61133d8184611a0e565b60698302838104606914841517156102d55760649004908110611697575050611367828093611a21565b9280600660018060a01b03600188015416960160405190848252856020830152606060408301525f9080549061139c82611807565b918260608601526001811690815f1461165457506001146115f9575b505090807fc6c94c322e79855fb0c9eb5803a24f6c5cb609d0a394f05a799403080a535f2b920390a25f5260046020525f6009604082208281558260018201558260028201558260038201558260048201558260058201556006810161141e8154611807565b90816115b6575b5050600781018390556008810183905501556002546040516323b872dd60e01b81523360048201523060248201526044810183905290602090829060649082905f906001600160a01b03165af1908115610327575f91611597575b5015611569575060405163a9059cbb60e01b815233600482015260248101919091526020816044815f875af1908115610327575f9161154a575b50156102e957806114cc575b60018055005b60405163a9059cbb60e01b81526001600160a01b0384166004820152602481018290526020816044815f875af1908115610327575f9161152b575b506114c657610c4990604051938493639fca2ffd60e01b8552309060048601611a5c565b611544915060203d6020116103205761031281836117e5565b84611507565b611563915060203d6020116103205761031281836117e5565b846114ba565b600254604051639fca2ffd60e01b8152918291610c499190309033906001600160a01b031660048601611a5c565b6115b0915060203d6020116103205761031281836117e5565b86611480565b81601f8693116001146115cd5750555b8880611425565b818352602083206115e991601f0160051c810190600101611a2e565b80825281602081209155556115c6565b5f908152602081209092505b81831061163a5750508101608001817fc6c94c322e79855fb0c9eb5803a24f6c5cb609d0a394f05a799403080a535f2b6113b8565b805460808585010152859450602090920191600101611605565b859450608092507fc6c94c322e79855fb0c9eb5803a24f6c5cb609d0a394f05a799403080a535f2b9593915060ff191682840152151560051b82010191926113b8565b611367916116a4916119f0565b8093611a21565b6315749ea760e21b5f5260045ffd5b630879983f60e21b5f5260045ffd5b3461018e575f36600319011261018e576002546040516001600160a01b039091168152602090f35b3461018e57602036600319011261018e5761170a611779565b611712611cc6565b6001600160a01b0316801561173d576bffffffffffffffffffffffff60a01b60035416176003555f80f35b635521068160e01b5f5260045ffd5b3461018e57602036600319011261018e57602061176f61176a611779565b611903565b6040519015158152f35b600435906001600160a01b038216820361018e57565b3461018e575f36600319011261018e5760206040516301e133808152f35b3461018e575f36600319011261018e576020604051600a8152f35b610140810190811067ffffffffffffffff8211176110e257604052565b90601f8019910116810190811067ffffffffffffffff8211176110e257604052565b90600182811c92168015611835575b602083101461182157565b634e487b7160e01b5f52602260045260245ffd5b91607f1691611816565b9060405191825f82549261185284611807565b80845293600181169081156118bd5750600114611879575b50611877925003836117e5565b565b90505f9291925260205f20905f915b8183106118a1575050906020611877928201015f61186a565b6020919350806001915483858901015201910190918492611888565b90506020925061187794915060ff191682840152151560051b8201015f61186a565b805180835260209291819084018484015e5f828201840152601f01601f1916010190565b60018060a01b0381165f52600460205260405f20604051611923816117c8565b8154815260018201546001600160a01b031660208201526002820154604082019081526003830154606083015260048301546080830152600583015460a0830152906119716006840161183f565b60c0820152600783015460e082015261012060ff600960088601549586610100860152015416151591015251156119dd5780151590816119d3575b506119cd576119ba90611bb0565b5f1981146119c85760781190565b505f90565b50600190565b905042115f6119ac565b50505f90565b919082018092116102d557565b81156119fa570490565b634e487b7160e01b5f52601260045260245ffd5b818102929181159184041417156102d557565b919082039182116102d557565b818110611a39575050565b5f8155600101611a2e565b9081602091031261018e5751801515810361018e5790565b6001600160a01b03918216815291811660208301529091166040820152606081019190915260800190565b60018060a01b03165f52600460205260405f2060405190611aa7826117c8565b8054825260018101546001600160a01b0316602083015260028101546040830190815260038201546060840152600482015460808401908152600583015460a0850190815293909290611afc6006830161183f565b60c082015260ff60096007840154938460e0850152600881015461010085015201541615156101208201528051918215611ba657611b4492611b3d916119f0565b9051611a0e565b6064810290808204606414901517156102d5576096611b669104935142611a21565b91815190600a820291808304600a14901517156102d55763bbf81e006105ca611b92956105d594611a0e565b818110156119dd57611ba391611a21565b90565b5050505050505f90565b60018060a01b03165f52600460205260405f2060405190611bd0826117c8565b8054825260018101546001600160a01b0316602083015260028101546040830190815260038201546060840152600482015460808401908152600583015460a08501908152939091611c246006850161183f565b60c083015260ff60096007860154958660e08601526008810154610100860152015416151561012083015251928315611cbc5781611b3d611c6a92611c729451906119f0565b935142611a21565b91600a810290808204600a036102d55763bbf81e00611c97611ca0956105d594611a0e565b049251906119e3565b6064820291808304606414901517156102d557611ba3916119f0565b50505050505f1990565b5f546001600160a01b03163303611cd957565b63118cdaa760e01b5f523360045260245ffd5b600260015414611cfd576002600155565b633ee5aeb560e01b5f5260045ffd5b6001600160a01b03165f9081526004602052604090206002810154908115611d7f576005810191611d3e835442611a21565b908115611d7957600a8102908104600a036102d55763bbf81e00611d67611d7293600493611a0e565b0492019182546119e3565b9055429055565b50505050565b505056fea2646970667358221220906ba8ebb0c11022f6790f50831a45080b3abe46eef3cf7e0cc53403096cf36664736f6c634300081e0033","linkReferences":{}},"methodIdentifiers":{"COLLATERAL_RATIO()":"d9e69a05","EXTENSION_TERM()":"4473248d","INTEREST_RATE()":"5b72a33a","LIQUIDATION_BONUS()":"3574d4c4","LIQUIDATION_THRESHOLD()":"90a8ae9b","LOAN_TERM()":"32a7d8de","ORIGINATION_FEE()":"3aa3fe79","SECONDS_PER_YEAR()":"e6a69ab8","addSupportedToken(address)":"6d69fcaf","associateWithHeNGN()":"ab613af6","borrow(uint256)":"c5ebeaec","depositCollateral(address,uint256,string,uint256)":"40125870","extendLoan()":"faa09e77","getHealthFactor(address)":"fe6bcd7c","getLoanDetails(address)":"e8a7da8e","getMaxBorrow(address)":"fd1c317a","heNGN()":"26c98b38","isLiquidatable(address)":"042e02cf","liquidate(address)":"2f865568","loans(address)":"73b4086b","oracle()":"7dc0d1d0","owner()":"8da5cb5b","removeSupportedToken(address)":"76319190","renounceOwnership()":"715018a6","repay(uint256)":"371fd8e6","supportedTokens(address)":"68c4ac26","transferOwnership(address)":"f2fde38b","updateOracle(address)":"1cb44dfc","withdrawCollateral(uint256)":"6112fe2e","withdrawFees()":"476343ee"},"id":21}