{"abi":[{"type":"constructor","inputs":[],"stateMutability":"nonpayable"},{"type":"function","name":"MAX_PRICE_AGE","inputs":[],"outputs":[{"name":"","type":"uint256","internalType":"uint256"}],"stateMutability":"view"},{"type":"function","name":"getPrice","inputs":[{"name":"token","type":"address","internalType":"address"}],"outputs":[{"name":"","type":"uint256","internalType":"uint256"}],"stateMutability":"view"},{"type":"function","name":"isPriceStale","inputs":[{"name":"token","type":"address","internalType":"address"}],"outputs":[{"name":"","type":"bool","internalType":"bool"}],"stateMutability":"view"},{"type":"function","name":"lastUpdate","inputs":[{"name":"","type":"address","internalType":"address"}],"outputs":[{"name":"","type":"uint256","internalType":"uint256"}],"stateMutability":"view"},{"type":"function","name":"owner","inputs":[],"outputs":[{"name":"","type":"address","internalType":"address"}],"stateMutability":"view"},{"type":"function","name":"prices","inputs":[{"name":"","type":"address","internalType":"address"}],"outputs":[{"name":"","type":"uint256","internalType":"uint256"}],"stateMutability":"view"},{"type":"function","name":"renounceOwnership","inputs":[],"outputs":[],"stateMutability":"nonpayable"},{"type":"function","name":"transferOwnership","inputs":[{"name":"newOwner","type":"address","internalType":"address"}],"outputs":[],"stateMutability":"nonpayable"},{"type":"function","name":"updatePrice","inputs":[{"name":"token","type":"address","internalType":"address"},{"name":"price","type":"uint256","internalType":"uint256"}],"outputs":[],"stateMutability":"nonpayable"},{"type":"function","name":"updatePrices","inputs":[{"name":"tokens","type":"address[]","internalType":"address[]"},{"name":"newPrices","type":"uint256[]","internalType":"uint256[]"}],"outputs":[],"stateMutability":"nonpayable"},{"type":"event","name":"OwnershipTransferred","inputs":[{"name":"previousOwner","type":"address","indexed":true,"internalType":"address"},{"name":"newOwner","type":"address","indexed":true,"internalType":"address"}],"anonymous":false},{"type":"event","name":"PriceUpdated","inputs":[{"name":"token","type":"address","indexed":true,"internalType":"address"},{"name":"price","type":"uint256","indexed":false,"internalType":"uint256"},{"name":"timestamp","type":"uint256","indexed":false,"internalType":"uint256"}],"anonymous":false},{"type":"error","name":"InvalidPrice","inputs":[]},{"type":"error","name":"InvalidToken","inputs":[]},{"type":"error","name":"LengthMismatch","inputs":[]},{"type":"error","name":"Oracle__PriceNotSet","inputs":[{"name":"token","type":"address","internalType":"address"}]},{"type":"error","name":"Oracle__PriceStale","inputs":[{"name":"token","type":"address","internalType":"address"},{"name":"lastUpdate","type":"uint256","internalType":"uint256"},{"name":"currentTime","type":"uint256","internalType":"uint256"}]},{"type":"error","name":"OwnableInvalidOwner","inputs":[{"name":"owner","type":"address","internalType":"address"}]},{"type":"error","name":"OwnableUnauthorizedAccount","inputs":[{"name":"account","type":"address","internalType":"address"}]}],"bytecode":{"object":"0x608060405234801561000f575f5ffd5b50335f73ffffffffffffffffffffffffffffffffffffffff168173ffffffffffffffffffffffffffffffffffffffff1603610081575f6040517f1e4fbdf70000000000000000000000000000000000000000000000000000000081526004016100789190610196565b60405180910390fd5b6100908161009660201b60201c565b506101af565b5f5f5f9054906101000a900473ffffffffffffffffffffffffffffffffffffffff169050815f5f6101000a81548173ffffffffffffffffffffffffffffffffffffffff021916908373ffffffffffffffffffffffffffffffffffffffff1602179055508173ffffffffffffffffffffffffffffffffffffffff168173ffffffffffffffffffffffffffffffffffffffff167f8be0079c531659141344cd1fd0a4f28419497f9722a3daafe3b4186f6b6457e060405160405180910390a35050565b5f73ffffffffffffffffffffffffffffffffffffffff82169050919050565b5f61018082610157565b9050919050565b61019081610176565b82525050565b5f6020820190506101a95f830184610187565b92915050565b610d4f806101bc5f395ff3fe608060405234801561000f575f5ffd5b506004361061009c575f3560e01c806396f770601161006457806396f77060146101445780639d7f7e8614610160578063cb03fb1e1461017e578063cfed246b146101ae578063f2fde38b146101de5761009c565b806317fdb62f146100a057806341976e09146100d0578063457972de14610100578063715018a61461011c5780638da5cb5b14610126575b5f5ffd5b6100ba60048036038101906100b591906109dd565b6101fa565b6040516100c79190610a22565b60405180910390f35b6100ea60048036038101906100e591906109dd565b61029b565b6040516100f79190610a53565b60405180910390f35b61011a60048036038101906101159190610a96565b6103ff565b005b610124610517565b005b61012e61052a565b60405161013b9190610ae3565b60405180910390f35b61015e60048036038101906101599190610bb2565b610551565b005b610168610777565b6040516101759190610a53565b60405180910390f35b610198600480360381019061019391906109dd565b61077e565b6040516101a59190610a53565b60405180910390f35b6101c860048036038101906101c391906109dd565b610793565b6040516101d59190610a53565b60405180910390f35b6101f860048036038101906101f391906109dd565b6107a8565b005b5f5f60025f8473ffffffffffffffffffffffffffffffffffffffff1673ffffffffffffffffffffffffffffffffffffffff1681526020019081526020015f2054905062015180814261024c9190610c5d565b10610292578281426040517fe0d65f5a00000000000000000000000000000000000000000000000000000000815260040161028993929190610c90565b60405180910390fd5b5f915050919050565b5f5f60015f8473ffffffffffffffffffffffffffffffffffffffff1673ffffffffffffffffffffffffffffffffffffffff1681526020019081526020015f205490505f810361032157826040517fa5c35e330000000000000000000000000000000000000000000000000000000081526004016103189190610ae3565b60405180910390fd5b5f60025f8573ffffffffffffffffffffffffffffffffffffffff1673ffffffffffffffffffffffffffffffffffffffff1681526020019081526020015f205490506201518081426103729190610c5d565b106103b8578381426040517fe0d65f5a0000000000000000000000000000000000000000000000000000000081526004016103af93929190610c90565b60405180910390fd5b60015f8573ffffffffffffffffffffffffffffffffffffffff1673ffffffffffffffffffffffffffffffffffffffff1681526020019081526020015f205492505050919050565b61040761082c565b5f810361043f576040517ebfc92100000000000000000000000000000000000000000000000000000000815260040160405180910390fd5b8060015f8473ffffffffffffffffffffffffffffffffffffffff1673ffffffffffffffffffffffffffffffffffffffff1681526020019081526020015f20819055504260025f8473ffffffffffffffffffffffffffffffffffffffff1673ffffffffffffffffffffffffffffffffffffffff1681526020019081526020015f20819055508173ffffffffffffffffffffffffffffffffffffffff167fb556fac599c3c70efb9ab1fa725ecace6c81cc48d1455f886607def065f3e0c0824260405161050b929190610cc5565b60405180910390a25050565b61051f61082c565b6105285f6108b3565b565b5f5f5f9054906101000a900473ffffffffffffffffffffffffffffffffffffffff16905090565b61055961082c565b818190508484905014610598576040517fff633a3800000000000000000000000000000000000000000000000000000000815260040160405180910390fd5b5f5f90505b84849050811015610770575f8585838181106105bc576105bb610cec565b5b90506020020160208101906105d191906109dd565b90505f8484848181106105e7576105e6610cec565b5b9050602002013590505f73ffffffffffffffffffffffffffffffffffffffff168273ffffffffffffffffffffffffffffffffffffffff1603610655576040517fc1ab6dc100000000000000000000000000000000000000000000000000000000815260040160405180910390fd5b5f810361068d576040517ebfc92100000000000000000000000000000000000000000000000000000000815260040160405180910390fd5b8060015f8473ffffffffffffffffffffffffffffffffffffffff1673ffffffffffffffffffffffffffffffffffffffff1681526020019081526020015f20819055504260025f8473ffffffffffffffffffffffffffffffffffffffff1673ffffffffffffffffffffffffffffffffffffffff1681526020019081526020015f20819055508173ffffffffffffffffffffffffffffffffffffffff167fb556fac599c3c70efb9ab1fa725ecace6c81cc48d1455f886607def065f3e0c08242604051610759929190610cc5565b60405180910390a25050808060010191505061059d565b5050505050565b6201518081565b6002602052805f5260405f205f915090505481565b6001602052805f5260405f205f915090505481565b6107b061082c565b5f73ffffffffffffffffffffffffffffffffffffffff168173ffffffffffffffffffffffffffffffffffffffff1603610820575f6040517f1e4fbdf70000000000000000000000000000000000000000000000000000000081526004016108179190610ae3565b60405180910390fd5b610829816108b3565b50565b610834610974565b73ffffffffffffffffffffffffffffffffffffffff1661085261052a565b73ffffffffffffffffffffffffffffffffffffffff16146108b157610875610974565b6040517f118cdaa70000000000000000000000000000000000000000000000000000000081526004016108a89190610ae3565b60405180910390fd5b565b5f5f5f9054906101000a900473ffffffffffffffffffffffffffffffffffffffff169050815f5f6101000a81548173ffffffffffffffffffffffffffffffffffffffff021916908373ffffffffffffffffffffffffffffffffffffffff1602179055508173ffffffffffffffffffffffffffffffffffffffff168173ffffffffffffffffffffffffffffffffffffffff167f8be0079c531659141344cd1fd0a4f28419497f9722a3daafe3b4186f6b6457e060405160405180910390a35050565b5f33905090565b5f5ffd5b5f5ffd5b5f73ffffffffffffffffffffffffffffffffffffffff82169050919050565b5f6109ac82610983565b9050919050565b6109bc816109a2565b81146109c6575f5ffd5b50565b5f813590506109d7816109b3565b92915050565b5f602082840312156109f2576109f161097b565b5b5f6109ff848285016109c9565b91505092915050565b5f8115159050919050565b610a1c81610a08565b82525050565b5f602082019050610a355f830184610a13565b92915050565b5f819050919050565b610a4d81610a3b565b82525050565b5f602082019050610a665f830184610a44565b92915050565b610a7581610a3b565b8114610a7f575f5ffd5b50565b5f81359050610a9081610a6c565b92915050565b5f5f60408385031215610aac57610aab61097b565b5b5f610ab9858286016109c9565b9250506020610aca85828601610a82565b9150509250929050565b610add816109a2565b82525050565b5f602082019050610af65f830184610ad4565b92915050565b5f5ffd5b5f5ffd5b5f5ffd5b5f5f83601f840112610b1d57610b1c610afc565b5b8235905067ffffffffffffffff811115610b3a57610b39610b00565b5b602083019150836020820283011115610b5657610b55610b04565b5b9250929050565b5f5f83601f840112610b7257610b71610afc565b5b8235905067ffffffffffffffff811115610b8f57610b8e610b00565b5b602083019150836020820283011115610bab57610baa610b04565b5b9250929050565b5f5f5f5f60408587031215610bca57610bc961097b565b5b5f85013567ffffffffffffffff811115610be757610be661097f565b5b610bf387828801610b08565b9450945050602085013567ffffffffffffffff811115610c1657610c1561097f565b5b610c2287828801610b5d565b925092505092959194509250565b7f4e487b71000000000000000000000000000000000000000000000000000000005f52601160045260245ffd5b5f610c6782610a3b565b9150610c7283610a3b565b9250828203905081811115610c8a57610c89610c30565b5b92915050565b5f606082019050610ca35f830186610ad4565b610cb06020830185610a44565b610cbd6040830184610a44565b949350505050565b5f604082019050610cd85f830185610a44565b610ce56020830184610a44565b9392505050565b7f4e487b71000000000000000000000000000000000000000000000000000000005f52603260045260245ffdfea2646970667358221220f865a76857542e4f74f6b16d33d77427eabbdfde30cf90fa49621fff330db98a64736f6c634300081e0033","linkReferences":{}},"methodIdentifiers":{"MAX_PRICE_AGE()":"9d7f7e86","getPrice(address)":"41976e09","isPriceStale(address)":"17fdb62f","lastUpdate(address)":"cb03fb1e","owner()":"8da5cb5b","prices(address)":"cfed246b","renounceOwnership()":"715018a6","transferOwnership(address)":"f2fde38b","updatePrice(address,uint256)":"457972de","updatePrices(address[],uint256[])":"96f77060"},"id":21}