{"abi":[{"type":"constructor","inputs":[],"stateMutability":"nonpayable"},{"type":"function","name":"MAX_PRICE_AGE","inputs":[],"outputs":[{"name":"","type":"uint256","internalType":"uint256"}],"stateMutability":"view"},{"type":"function","name":"getPrice","inputs":[{"name":"token","type":"address","internalType":"address"}],"outputs":[{"name":"","type":"uint256","internalType":"uint256"}],"stateMutability":"view"},{"type":"function","name":"isPriceStale","inputs":[{"name":"token","type":"address","internalType":"address"}],"outputs":[{"name":"","type":"bool","internalType":"bool"}],"stateMutability":"view"},{"type":"function","name":"lastUpdate","inputs":[{"name":"","type":"address","internalType":"address"}],"outputs":[{"name":"","type":"uint256","internalType":"uint256"}],"stateMutability":"view"},{"type":"function","name":"owner","inputs":[],"outputs":[{"name":"","type":"address","internalType":"address"}],"stateMutability":"view"},{"type":"function","name":"prices","inputs":[{"name":"","type":"address","internalType":"address"}],"outputs":[{"name":"","type":"uint256","internalType":"uint256"}],"stateMutability":"view"},{"type":"function","name":"renounceOwnership","inputs":[],"outputs":[],"stateMutability":"nonpayable"},{"type":"function","name":"transferOwnership","inputs":[{"name":"newOwner","type":"address","internalType":"address"}],"outputs":[],"stateMutability":"nonpayable"},{"type":"function","name":"updatePrice","inputs":[{"name":"token","type":"address","internalType":"address"},{"name":"price","type":"uint256","internalType":"uint256"}],"outputs":[],"stateMutability":"nonpayable"},{"type":"function","name":"updatePrices","inputs":[{"name":"tokens","type":"address[]","internalType":"address[]"},{"name":"newPrices","type":"uint256[]","internalType":"uint256[]"}],"outputs":[],"stateMutability":"nonpayable"},{"type":"event","name":"OwnershipTransferred","inputs":[{"name":"previousOwner","type":"address","indexed":true,"internalType":"address"},{"name":"newOwner","type":"address","indexed":true,"internalType":"address"}],"anonymous":false},{"type":"event","name":"PriceUpdated","inputs":[{"name":"token","type":"address","indexed":true,"internalType":"address"},{"name":"price","type":"uint256","indexed":false,"internalType":"uint256"},{"name":"timestamp","type":"uint256","indexed":false,"internalType":"uint256"}],"anonymous":false},{"type":"error","name":"InvalidPrice","inputs":[]},{"type":"error","name":"InvalidToken","inputs":[]},{"type":"error","name":"LengthMismatch","inputs":[]},{"type":"error","name":"Oracle__PriceNotSet","inputs":[{"name":"token","type":"address","internalType":"address"}]},{"type":"error","name":"Oracle__PriceStale","inputs":[{"name":"token","type":"address","internalType":"address"},{"name":"lastUpdate","type":"uint256","internalType":"uint256"},{"name":"currentTime","type":"uint256","internalType":"uint256"}]},{"type":"error","name":"OwnableInvalidOwner","inputs":[{"name":"owner","type":"address","internalType":"address"}]},{"type":"error","name":"OwnableUnauthorizedAccount","inputs":[{"name":"account","type":"address","internalType":"address"}]}],"bytecode":{"object":"0x608080604052346071573315605e575f8054336001600160a01b0319821681178355916001600160a01b03909116907f8be0079c531659141344cd1fd0a4f28419497f9722a3daafe3b4186f6b6457e09080a36105a590816100768239f35b631e4fbdf760e01b5f525f60045260245ffd5b5f80fdfe60806040526004361015610011575f80fd5b5f3560e01c806317fdb62f1461045657806341976e09146103be578063457972de1461033e578063715018a6146102e75780638da5cb5b146102c057806396f770601461019d5780639d7f7e8614610180578063cb03fb1e14610148578063cfed246b146101105763f2fde38b14610087575f80fd5b3461010c57602036600319011261010c576100a06104bd565b6100a8610549565b6001600160a01b031680156100f9575f80546001600160a01b03198116831782556001600160a01b0316907f8be0079c531659141344cd1fd0a4f28419497f9722a3daafe3b4186f6b6457e09080a3005b631e4fbdf760e01b5f525f60045260245ffd5b5f80fd5b3461010c57602036600319011261010c576001600160a01b036101316104bd565b165f526001602052602060405f2054604051908152f35b3461010c57602036600319011261010c576001600160a01b036101696104bd565b165f526002602052602060405f2054604051908152f35b3461010c575f36600319011261010c576020604051620151808152f35b3461010c57604036600319011261010c5760043567ffffffffffffffff811161010c576101ce9036906004016104d3565b9060243567ffffffffffffffff811161010c576101ef9036906004016104d3565b90926101f9610549565b8181036102b1575f5b81811061020b57005b610216818386610525565b356001600160a01b038116919082900361010c57610235818588610525565b359180156102a2578215610294577fb556fac599c3c70efb9ab1fa725ecace6c81cc48d1455f886607def065f3e0c06040600194835f528560205280825f2055835f52600260205242825f20558151908152426020820152a201610202565b62bfc92160e01b5f5260045ffd5b63c1ab6dc160e01b5f5260045ffd5b631fec674760e31b5f5260045ffd5b3461010c575f36600319011261010c575f546040516001600160a01b039091168152602090f35b3461010c575f36600319011261010c576102ff610549565b5f80546001600160a01b0319811682556001600160a01b03167f8be0079c531659141344cd1fd0a4f28419497f9722a3daafe3b4186f6b6457e08280a3005b3461010c57604036600319011261010c576103576104bd565b60243590610363610549565b81156102945760407fb556fac599c3c70efb9ab1fa725ecace6c81cc48d1455f886607def065f3e0c09160018060a01b031692835f52600160205280825f2055835f52600260205242825f20558151908152426020820152a2005b3461010c57602036600319011261010c576001600160a01b036103df6104bd565b16805f52600160205260405f20541561044457805f52600260205260405f20546201518061040d8242610504565b101561042a57505f526001602052602060405f2054604051908152f35b9063706b2fad60e11b5f526004526024524260445260645ffd5b63a5c35e3360e01b5f5260045260245ffd5b3461010c57602036600319011261010c576001600160a01b036104776104bd565b16805f52600260205260405f205490620151806104948342610504565b10156104a45760206040515f8152f35b63706b2fad60e11b5f526004526024524260445260645ffd5b600435906001600160a01b038216820361010c57565b9181601f8401121561010c5782359167ffffffffffffffff831161010c576020808501948460051b01011161010c57565b9190820391821161051157565b634e487b7160e01b5f52601160045260245ffd5b91908110156105355760051b0190565b634e487b7160e01b5f52603260045260245ffd5b5f546001600160a01b0316330361055c57565b63118cdaa760e01b5f523360045260245ffdfea2646970667358221220a816c434564dfec6fde8d799945cdf413a017830b3292792fd638c1c448d0bc864736f6c634300081e0033","linkReferences":{}},"methodIdentifiers":{"MAX_PRICE_AGE()":"9d7f7e86","getPrice(address)":"41976e09","isPriceStale(address)":"17fdb62f","lastUpdate(address)":"cb03fb1e","owner()":"8da5cb5b","prices(address)":"cfed246b","renounceOwnership()":"715018a6","transferOwnership(address)":"f2fde38b","updatePrice(address,uint256)":"457972de","updatePrices(address[],uint256[])":"96f77060"},"id":30}